:020000040800F2
:10000000904F002099010008F31D0008091D000809
:10001000F11D0008270A0008152300080000000051
:1000200000000000000000000000000001010008C6
:100030006B0A000800000000450100083D1E000892
:10004000B3010008B3010008B3010008B3010008C0
:10005000B3010008B3010008B3010008B3010008B0
:10006000B3010008B3010008B3010008B3010008A0
:10007000B3010008B3010008290A0008350A000886
:10008000B3010008B3010008B3010008B301000880
:10009000B3010008B3010008B3010008B301000870
:1000A000B3010008B3010008B3010008B301000860
:1000B000B3010008B3010008C91E0008B30100081D
:1000C000B3010008B3010008B3010008B301000840
:1000D000B301000801230008B3010008B3010008C0
:1000E000B3010008B3010008B3010008DFF80CD029
:1000F00000F03EFA0048004707280008904F002013
:10010000224B19680868B0E8F00F80F30988BFF344
:100110006F8F4FF0000080F311884EF00D0E704786
:100120000000000006480068006880F3088862B696
:1001300061B6BFF34F8FBFF36F8F00DF00BF00BF0B
:1001400008ED00E0EFF30980BFF36F8F0F4B1A68E3
:1001500020E9F00F106008B54FF0500080F31188CF
:10016000BFF34F8FBFF36F8F03F00AFA4FF0000019
:1001700080F31188BDE8084019680868B0E8F00FFE
:1001800080F30988BFF36F8F704700BF1C00002009
:10019000EFF3058070470000064880470648004797
:1001A000FEE7FEE7FEE7FEE7FEE7FEE7FEE7FEE727
:1001B000FEE7FEE7C71E0008ED000008202A04DB6A
:1001C000203A21FA02F00021704721FA02F3D040D0
:1001D000C2F1200291400843194670470048704719
:1001E0007840000810B50446FFF7F8FF0068005D8E
:1001F00000F0010010BD40EA01039B0703D009E0B5
:1002000008C9121F08C0042AFAD203E011F8013B02
:1002100000F8013B521EF9D27047D2B201E000F85B
:10022000012B491EFBD270470022F6E710B513469A
:100230000A4604461946FFF7F0FF204610BD01F0BC
:10024000004330B421F0004150EA010206D00A0D0B
:10025000A2F56072C1F31301002A02DC30BC002059
:100260007047440F44EAC104C100E01830BC00EB01
:10027000C25000F065B830B50B4601460020202280
:10028000012409E021FA02F59D4205D303FA02F5A3
:10029000491B04FA02F52844151EA2F10102F1DC03
:1002A00030BD00000FB4002300B589B00CA9009147
:1002B0000B996FF00042CB601E4B06931E4B0793C9
:1002C0000423CDE901321D4A089202466B46002004
:1002D00000F004FA09B05DF814FB70B586B006466C
:1002E0004FF0FF300091CDE90101002015460C468A
:1002F00004903246694604A8FFF7D4FF02460498EA
:10030000211825B108B1084600E02046286004986D
:1003100000280DD0002A02DD0098884208D0081B72
:100320000094CDE901043246694604A8FFF7BAFFFC
:1003300006B070BD1509000833090008E501000882
:100340000029A8BF7047401C490008BF20F00100E9
:10035000704710B4B0FA80FC00FA0CF050EA0104C7
:1003600004BF10BC704749B1CCF1200421FA04F459
:1003700011FA0CF118BF012121430843A3EB0C0132
:10038000CB1D4FEA00614FEA102042BF002010BC95
:10039000704700EBC35010440029A4BF10BC704745
:1003A000401C490008BF20F0010010BC70472DE937
:1003B000FE4F81EA030404F0004421F00041009460
:1003C0004FF0000B23F0004350EA01045ED052EAE4
:1003D00003045BD0C3F30A54C1F30A552C44A4F2BE
:1003E000F3340194A0FB0254C1F3130141F48011D2
:1003F000C3F3130343F4801301FB024400FB034ED9
:10040000840A970A44EA815447EA8357A4FB0768A1
:1004100002958D0A05FB07854FEA932C04FB0C54CB
:100420002705029D4FEA065847EA1637B5EB08053F
:100430006EEB070C870E920E47EA811742EA831291
:10044000A7FB0201B6EB0B0164EB00042B0D43EAA2
:100450000C335E1844EB1C50DA465146E7FB0201B0
:10046000C5F313044FEA0B3343EA14534FEA043243
:10047000019C43EA0603A4F10C040294009CCDE91C
:1004800000B400F076FA03B0BDE8F08F002001461A
:10049000F9E72DE9F04D81EA030404F0004B21F067
:1004A000004514464FF0000A23F0004150EA0502CF
:1004B00020D054EA01021DD0C5F30A570246C5F305
:1004C0001303C1F31300C1F30A5640F4801543F43B
:1004D0008013A7EB0608101BD64608F2FD3873EB15
:1004E000050002D308F1010801E092185B41B8F160
:1004F000000F03DA00200146BDE8F08D00204FF424
:100500008011064684460EE0171B73EB050705D3E2
:10051000121B63EB050306434CEA010C49084FEA42
:10052000300092185B4150EA0107EDD152EA030016
:1005300012D082EA040083EA0501084305D0101BAB
:10054000AB4106D20122002306E000224FF0004317
:1005500002E06FF0010253101AEB06004CEB085159
:1005600010EB0A0041EB0B01BDE8F04D00F0F2B9D1
:10057000064C074D06E0E06840F0010394E80700F0
:1005800098471034AC42F6D3FFF7B4FD9C40000806
:10059000BC400008202A04DB203A00FA02F10020C7
:1005A00070479140C2F1200320FA03F319439040B1
:1005B000704700002DE9FF4F087883B09946FF2867
:1005C00005D0491C2D2804D00024002008E000207C
:1005D0000BE00124F9E700EB800003EB4000491C2D
:1005E0000B78FF2BF7D104B140420023029314781B
:1005F00019461D462D2C01D02B2C04D1521C2D2C1C
:1006000013D000240294AA461478FF2C0FD00A2598
:10061000A3FB057801FB05814FF0000C03FB0C11D7
:10062000521CE3194AEB0101EEE70124EAE7814499
:1006300053EA010002D019F5C87F06DA03980021B9
:10064000C0E9001107B0BDE8F08F0025AE4E2F467F
:10065000DFF8B882184600F0DAF9CDE90001B9F107
:10066000000002DAC9F1000400E004460023A74AB2
:100670001AEB030B42EB045A12E0E00707D02A46BC
:10068000334638464146FFF792FE074688462A46DB
:10069000334610461946FFF78AFE05460E4664109B
:1006A000002CEAD1DDE90001B9F1000F5A465346AA
:1006B00006DAFFF7EEFE3A464346FFF7EAFE05E0AC
:1006C000FFF775FE3A464346FFF771FE029A0AB1FC
:1006D00081F00041039AC2E90001B3E72DE9FF4F21
:1006E0001F468DB0D7E901464FF0FF382E20454612
:1006F0004FF000090B90B9696D1C0E988847396A54
:10070000824688470028F6D1BAF1FF3F0AD024F488
:10071000D064002E11DDBAF12B0F08D0BAF12D0FE5
:100720000BD102E0404611B08DE744F48064B96912
:100730006D1C0E9888478246761E6946600501D575
:100740002D2000E02B208DF8000001F1010B0DF1B0
:10075000200809E0B9696D1C0E98884782460F98F9
:1007600044F40074761E0560002E02DDBAF1300FED
:10077000F0D00B998A453ED144F0800406E00F99F1
:10078000681CA9F1010944F400740860B9696D1C82
:10079000761E0E98884782463028F0D02BE00B99C1
:1007A0008A4505D1200603D444F08004761E18E063
:1007B000504601F0FFFE08B30DF11301761E44F41C
:1007C00000748B4508D2AAF130000BF8010B20060B
:1007D00007D5A9F1010003E0200602D409F10100C8
:1007E0008146A00502D50F99681C0860B9696D1C87
:1007F0000E9888478246002ED1DC53E0002E51DD52
:10080000BAF1650F02D0BAF1450F4BD1A00549D519
:10081000B9696D1C24F44074761E0E988847824690
:10082000002E0CDD2B2804D0BAF12D0F07D144F493
:100830008074B9696D1C0E9888478246761EE00563
:1008400001D52D2100E02B2108F8011BCDF82C80CB
:1008500021E00DF12901761E44F4007488450CD284
:10086000AAF1300010F0FF0088F8000002D10B99C7
:10087000884509D908F1010806E0E00501D52448BA
:1008800001E042F20F708146B9696D1C0E988847ED
:1008900082460F980560002E04DD504601F08AFE66
:1008A0000028D6D1F9690E988847FF208BF8000000
:1008B00088F800000020069007904B466A4608A979
:1008C00006A8FFF777FEA00502D46FF001002AE723
:1008D00014F0240F0AD0E00714D1DDE906123868BD
:1008E000031D3B600068C0E900120BE0DDE9060172
:1008F000FFF7A5FC0146E00704D13868021D3A6005
:100900000068016028460EE7000014400000F03F38
:10091000F1D8FFFF426842B1016811F8013B23B1F1
:10092000521EC0E90012184670470121C160881E9E
:10093000704742685AB1C368016843B983688B4203
:1009400005D0491E521CC0E90012002070474FF02C
:10095000FF30704710B5141E73F1000408DA401C14
:1009600041F1000192185B411A4301D120F00100CE
:1009700010BD2DE9F04D92469B4611B1B1FA81F2BE
:1009800002E0B0FA80F220329046FFF703FE044600
:100990000F4640EA0A0041EA0B0153465A46084313
:1009A00013D0114653EA010019D0C8F14002504655
:1009B000FFF704FC05460E46504659464246FFF7EF
:1009C000E9FD084305D0012004E020463946BDE892
:1009D000F08D0020054346EAE0762C4337430A9821
:1009E0006305E40AA0EB08000022FD0A44EA47542C
:1009F0000A3002D500200146E9E7010510196941D6
:100A0000DDE9084500196941BDE8F04DA2E70EB5E2
:100A100040F2334202920022CDE900221346FFF752
:100A2000A8FF03B000BDFEE7014800F091B8000048
:100A30006C010020014800F08BB800002801002064
:100A400030B590F840500124AC40C56B6C60046830
:100A500063604368102B036803D099600068C2602C
:100A600030BD9A600068C16030BD704772B6FEE765
:100A700010B590F821100022022905D004218163CD
:100A800080F82020012010BD01680B6823F00E03C0
:100A90000B6001680B6823F001030B6090F8403095
:100AA000C46B012101FA03F3636080F8211080F820
:100AB0002020104610BD000010B590F82110002431
:100AC000022903D00421816301243DE001680A6802
:100AD00022F00E020A6001680A6822F001020A6030
:100AE0001A4A0168914201D1012121E0174A1432CA
:100AF000914201D110211BE0144A2832914201D1C8
:100B0000891515E0114A3C32914201D189140FE058
:100B10000E4A5032914202D14FF4803108E00B4A24
:100B20006432914202D14FF4801101E04FF08071A4
:100B3000064A083A5160012180F82110002180F80E
:100B40002010416B01B18847204610BD08000240CB
:100B50002DE9F05FC16B0C6801680B68D0F840C0EC
:100B6000042202FA0CF2494DDFF824A1494E4A4F03
:100B7000DFF828B1DFF828E122422CD05A072AD525
:100B80000A68920603D40A6822F004020A60016827
:100B9000A94201D1042219E0514501D1402215E0BA
:100BA000B14202D14FF4806210E0B94202D14FF459
:100BB00080420BE0594502D14FF4802206E0714596
:100BC00002D14FF4800201E04FF080622F490839D2
:100BD0004A60C16A3BE04FF0020808FA0CF818EAD4
:100BE000040F4FF000094FF0010235D05FEA83781F
:100BF00032D50B689B0605D40B6823F00A030B6003
:100C000080F821200168A94201D1022219E0514552
:100C100001D1202215E0B14202D14FF4007210E060
:100C2000B94202D14FF400520BE0594502D14FF4C2
:100C3000003206E0714502D14FF4001201E04FF09E
:100C40000072124908394A6080F82090816A0029B0
:100C50001AD0BDE8F05F0847082505FA0CF52542D3
:100C600012D01B0710D50B6823F00E030B6090F811
:100C70004010C36B02FA01F15960826380F82120B1
:100C800080F82090016BE2E7BDE8F09F0800024089
:100C90001C00024030000240440002405800024064
:100CA0006C00024030B528B308C813491422194417
:100CB000B1FBF2F18900C1631049816302214177E0
:100CC0001A6843F6F0718A43D0E900142143D0E951
:100CD00002452C432143046921434469214384692B
:100CE00021431143196000214163012242770177BA
:100CF000084630BD012030BDF8FFFDBF00000240B6
:100D000070B5044690F82000002501280CD0012081
:100D100084F8200094F821600020012E06D084F889
:100D200020000225284670BD022070BD022684F8EE
:100D30002160A0632068066826F001060660204650
:100D4000FFF77EFEE06A00282068016802D041F0CB
:100D50000E0106E021F0040101602068016841F005
:100D60000A0101602068016841F001010160D9E7D2
:100D70002DE9F84FDFF8B8910024A9F1040B2346C0
:100D80000F2709F1040AABF1040EC9E00125A540C3
:100D90002A40AA427DD1674ED1F804C0ACEB0608C8
:100DA000B44532D014DCBCF1030F3AD009DCBCF1FD
:100DB000000F2AD0BCF1010F1CD0BCF1020F31D1C1
:100DC0001DE0BCF1110F17D0BCF1120F2AD119E0B0
:100DD000B8F5881F19D006DCB8F5803F15D0B8F5F6
:100DE000801F1FD111E0B8F5001F0ED0B8F5041F09
:100DF00018D10AE0CB6815E0CB681B1D12E0CB6868
:100E000008330FE0CB680C330CE08B682BB1012B5F
:100E10004FF0080303D0456104E0042302E00561BC
:100E200000E00023FF2A01D8064601E000F1040695
:100E30004FEA840501D9A5F12005D6F8008007FA0C
:100E400005FC28EA0C0803FA05F548EA0508C6F887
:100E500000804D68ED0062D5374DAE6946F0010661
:100E6000AE61AD6924F0030605F001050095334D30
:100E700006EB050CDCF80850A607360F07FA06F853
:100E800025EA0805DFF8B880404503D14FF0000897
:100E900017E044E0DFF8AC80404502D14FF0010894
:100EA0000FE0DFF8A480404502D14FF0020808E0CF
:100EB000DFF89880404502D14FF0030801E04FF081
:100EC000040808FA06F848EA0508CCF808804D68D6
:100ED000D9F80060ED024D4601D5164300E0964377
:100EE0002E604D68DAF80060AD02554601D5164314
:100EF00000E096432E604D68DBF80060AD035D4670
:100F000001D5164300E096432E604D68DEF8006080
:100F1000ED03754601D5164300E096432E60641C30
:100F20000D682A46E5407FF431AFBDE8F88F000038
:100F300008040140000011100010024000000140B0
:100F400000080140000C0140001001400014014065
:100F500001488068704700000C000020024881684A
:100F600002781144816070470C000020074810B5DA
:100F7000016841F010010160032000F0A7F80F2084
:100F800000F006F800F050F8002010BD00200240EC
:100F900030B505461F4887B0C16941F00401C16101
:100FA000C06906A900F00400009001A800F036F91D
:100FB0000498B0B100F052F940001749174AB0FB4D
:100FC000F1F11748491E0260416040F2E73200210A
:100FD000C0E903218160816100F018FB040003D0A7
:100FE00015E000F03BF9E8E70D4800F03DFB040098
:100FF0000DD11E2000F03CF8102D07D2002229460A
:101000001E2000F043F80748056000E0012407B007
:10101000204630BD0010024040420F000008004052
:10102000B0010020100000200F4808B5816941F090
:1010300001018161816901F001010091C16941F003
:101040008051C161C069002200F0805000900F21E2
:10105000901E00F01BF80548416821F0E06141F066
:101060000071416008BD0000001002400000014016
:10107000002809DB00F01F02012191404009800097
:1010800000F1E020C0F8001170470000F0B40E4BF2
:101090001B680C46C3F30223C3F10705042D00D9D6
:1010A0000425191D072901D2002300E0DB1E0126BB
:1010B00006FA05F1491E214099409E40761E1640D1
:1010C0003143F0BC01F04ABA0CED00E0064900F0F3
:1010D000070208684FF6FF03184040EA0220034A5F
:1010E00010430860704700000CED00E00000FA05B6
:1010F0002DE9F0470F46050061D0434E306800F0FF
:101100000700B84209D2306820F007003843306049
:10111000306800F00700B84251D128683B4C810785
:1011200012D5400703D5606840F4E060606028781D
:10113000000703D5606840F4605060606068A9688B
:1011400020F0F000084360602878C00728D0686865
:10115000012810D02168022810D0890700292EDA32
:10116000616821F0030101436160FFF7F1FE8046F1
:1011700041F288390DE021688903EFE78901EDE745
:10118000FFF7E6FEA0EB0801494502D90320BDE8C0
:10119000F0876068696800F00C00B0EB810FEFD158
:1011A000306800F00700B8420BD9306820F0070023
:1011B00038433060306800F00700B84201D00120A9
:1011C000E5E72878400705D56068E96820F4E06025
:1011D000084360602878000706D56068296920F414
:1011E000605040EAC100606000F058F86168084A49
:1011F000C1F30311515CC840064908600648006805
:10120000FFF7C6FE0020C2E70020024000100240A7
:10121000DE3F000818000020100000200F220260AE
:101220000C4A536803F003034360536803F0F00370
:101230008360536803F4E063C36052684FF4E06373
:1012400003EAD20202610448006800F00700086067
:101250007047000000100240002002400448054989
:1012600000684968044AC1F30221515CC8407047D4
:101270001800002000100240EE3F00080448054915
:1012800000684968044AC1F3C221515CC8407047F4
:101290001800002000100240EE3F00080E4A51687E
:1012A0000E4801F00C03042B11D0082B0FD10C4871
:1012B000C1F38343C903C05C0AD55168084AC1F32E
:1012C0004041921E515C054A5043B0FBF1F070471B
:1012D00004494843704700000010024000127A00A1
:1012E000CE3F000800093D002DE9F84F040070D002
:1012F0002078C04DC00749D06868C0F3810001283C
:1013000007D06868C0F38100022809D16868C0036B
:1013100006D52868800339D560680028E7D035E015
:101320006068B0F5803F0BD010B1B0F5A02F11D0A0
:10133000286820F480302860286820F4802002E0AB
:10134000286840F480302860606890B1FFF700FEA4
:1013500006460AE0286840F480202860F0E700BFD5
:10136000FFF7F6FD801B642873D828688003F7D543
:101370000CE0FFF7EDFD064605E000BFFFF7E8FDD6
:10138000801B6428F0D828688003F7D420789A4E10
:1013900080074FF001094FF0000839D5686810F058
:1013A0000C0F07D06868C0F38100022809D1686873
:1013B000C00306D42868800714D52069012808D105
:1013C00010E02069B0B1C6F80090FFF7C1FD0746F4
:1013D00005E00AE1FFF7BCFDC01B0228C4D828685D
:1013E0008007F7D52868616920F0F80040EAC1005D
:1013F00028600DE0C6F80080FFF7AAFD074604E06C
:10140000FFF7A6FDC01B022823D828688007F7D461
:10141000207800072CD57948A169D9B1C0F800908F
:10142000FFF796FD074604E0FFF792FDC01B022878
:101430000FD8686A8007F7D571484FF4FA510068F1
:10144000B0FBF1F0009000BF0098411E0091FAD26D
:101450000EE080E0C0F80080FFF77AFD074604E068
:10146000FFF776FDC01B022875D8686A8007F7D49D
:101470002078400760D5E8690027C00008D4E869F3
:1014800040F08050E861E869012700F0805000904A
:101490005C480168C90513D40168834641F4807132
:1014A0000160FFF755FD824606E000BFFFF750FDE3
:1014B000A0EB0A0064284ED8DBF80000C005F5D583
:1014C000E06801280AD008B1052813D0286A20F066
:1014D00001002862286A20F0040002E0286A40F037
:1014E00001002862E06841F2883B98B1FFF730FDC7
:1014F00082460BE0286A40F004002862EEE700BF55
:10150000FFF726FDA0EB0A0159455AD8286A800743
:10151000F6D50CE0FFF71CFD824605E0FFF718FD4D
:10152000A0EB0A0159454CD8286A8007F6D41FB1B0
:10153000E86920F08050E861E06988B36968C1F328
:101540008101022944D00228C6F8608004D0FFF748
:10155000FFFC044638E034E0FFF7FAFC074604E0FD
:10156000FFF7F6FCC01B02282BD828688001F7D4AF
:10157000206AB0F5803F05D16868A16820F400308A
:1015800008436860D4E908010843696821F47411CC
:1015900008436860C6F86090FFF7DAFC044606E08E
:1015A00025E000BFFFF7D4FC001B022809D82868FB
:1015B0008001F7D51BE000BFFFF7CAFC001B022823
:1015C00002D90320BDE8F88F28688001F4D40EE02A
:1015D0000128F7D06868226A00F48031914204D172
:1015E000616A00F47010884201D00120EAE700200F
:1015F000E8E700000010024000004242800442423E
:1016000018000020007000407047704710B50400BB
:1016100003D094F83D0010B107E0012010BD002078
:1016200084F83C00204600F01EF8022084F83D00BB
:10163000211D206800F04EFC012084F8460084F84B
:101640003E0084F83F0084F8400084F8410084F8AC
:10165000420084F8430084F8440084F8450084F88C
:101660003D00002010BD704790F83D10012901D0C9
:1016700001207047022180F83D100168CA6842F0DD
:101680000102CA6000680B49884208D0B0F1804F5F
:1016900005D00949884202D00849884204D18168AE
:1016A00001F00701062903D0016841F00101016042
:1016B00000207047002C014000040040000800405A
:1016C000704770B50446006801694FF00005C943D2
:1016D000890715D4C168C943890711D4E91E01617E
:1016E00001202077206880698007204602D0FFF71C
:1016F000E7FF04E000F098F8204600F096F8257720
:1017000020680169C943490717D4C168C94349071B
:1017100013D46FF0040101610220207720688069F2
:1017200010F4407F204602D0FFF7CAFF04E000F02B
:101730007BF8204600F079F8257720680169C943D5
:10174000090716D4C168C943090712D46FF008010C
:101750000161042020772068C0698007204602D0FC
:10176000FFF7AEFF04E000F05FF8204600F05DF800
:10177000257720680169C943C90617D4C168C943E0
:10178000C90613D46FF0100101610820207720688A
:10179000C06910F4407F204602D0FFF791FF04E0BB
:1017A00000F042F8204600F040F8257720680169F3
:1017B000C943C90708D1C168C943C90704D1891EF3
:1017C0000161204600F032F820680169C94309062A
:1017D00009D4C168C943090605D46FF080010161CD
:1017E0002046FFF711FF20680169C943490609D463
:1017F000C168C943490605D46FF040010161204624
:1018000000F01EF820680169C94389060BD4C1683D
:10181000C943890607D46FF0200101612046BDE865
:101820007040FFF7F2BE70BD704770470068034913
:10183000884201D1FFF792BB7047000000080040CA
:101840007047704710B504460068406994F841102D
:10185000C0F3C010212911D180B12068143050E8A4
:10186000001F21F0800140E80012002AF5D1A06B92
:1018700008B1FFF7FDF8204600F02EFC2068406913
:1018800094F84210C0F38010222911D180B1206851
:10189000143050E8001F21F0400140E80012002AF7
:1018A000F5D1E06B08B1FFF7E3F8204600F0EDFB5F
:1018B000002010BD70470000F8B5016804460868B4
:1018C000CA684B6910F00F0F4FF0000559D003F0B4
:1018D000010602F49077374365D0C10705D0D105E2
:1018E00003D5616C41F001016164410705D5D90759
:1018F00003D0616C41F002016164810705D5D9070D
:1019000003D0616C41F004016164010707D502F066
:101910002001314303D0616C41F008016164616CC6
:1019200000293AD0800604D5900602D5204600F062
:10193000E1FB20684069616CC0F38010090700D4A6
:1019400060B3204600F0A1FB20684069400621D525
:101950002068143050E8001F21F0400140E80012D8
:10196000002AF5D1E06BA8B16D494163E06BFFF748
:10197000A3F8002811D0E06B416B01B0BDE8F04046
:10198000084783060FD593060DD52046BDE8F840DD
:1019900000F0B0BB2046FFF78DFFF8BD2046FFF7F3
:1019A00089FF6564F8BD266B2023012E7CD1C60615
:1019B0007AD5D60678D508684868009048694FF00F
:1019C0000206400640D5E16B086840680004000C40
:1019D000E8D0A28D8242E5D9E085886920282DD003
:1019E00020680C3050E8001F21F4807140E800129C
:1019F000002AF5D12068143050E8001F21F00101C1
:101A000040E80012002AF5D12068143050E8001F89
:101A100021F0400140E80012002AF5D184F842305C
:101A2000256320680C3050E8001F21F0100140E8C9
:101A30000012002AF5D1E06BFFF71AF86663A08D5B
:101A4000E18D401A81B22AE0A08DE18D401A81B269
:101A5000E08D0028A6D00029A4D022680C3252E8DC
:101A6000000F20F4907042E80007002FF5D12068A5
:101A7000143050E8002F22F0010240E80027002F28
:101A8000F5D184F84230256320680C3050E8002FEF
:101A900022F0100240E80023002BF5D166632046B7
:101AA000FFF7CFFEF8BDFFE705062BD5150629D5B4
:101AB00094F841002128F5D1A068B0F5805F01D1EC
:101AC0002069B0B1206A411C216221680078486019
:101AD000E08C401E0004000CE084E3D12068C16863
:101AE00021F08001C1602068C16841F04001C160FF
:101AF000D8E7206A0088C0F308004860206A801C8C
:101B00002062E5E74006CDD55006CBD5CA68204611
:101B100022F04002CA6084F8413000F0F3F8C1E7D7
:101B2000411F000870B5040004D094F8410000255E
:101B300010B106E0012070BD84F84050204600F04E
:101B400023F8242084F841002068C16821F4005162
:101B5000C160204600F030FB2068016921F490410B
:101B600001612068416921F02A0141612068C16852
:101B700041F40051C1606564202084F8410084F87C
:101B800042006563002070BD2DE9F04186B000245D
:101B90000646009401940294039400682E498842FA
:101BA00057D12E48816941F480418161816901F4F6
:101BB00080410491816941F0040181618069284D6F
:101BC00000F0040004904FF4007000900220019097
:101BD0000320039069462846FFF7CAF82815CDE987
:101BE0000004694628460294FFF7C2F81E4D1D48BE
:101BF0004FF08008C5E90004C5E902482C6187144C
:101C00006C61C5E906472846FFF74CF808B1FEF7B6
:101C10002DFFF5636E62144D12484435143801C52A
:101C20001020A5E81101104845F8104944306C61B6
:101C3000C5E90647FFF736F808B1FEF717FFB563A9
:101C40000022052125206E62FFF720FA2520FFF7EC
:101C50000FFA06B0BDE8F0810038014000100240E4
:101C600000080140580002402801002090F842304E
:101C7000202B01D00220704721B11AB10023036349
:101C800000F0F6BA012070477047704770B50446FF
:101C900090F84100202801D0022070BD49B342B322
:101CA0002162A284E28400206064212384F8413010
:101CB000A56B114BAB62A56B104BEB62A56B104B88
:101CC0002B63A36B5863256813462A1DA06BFFF78F
:101CD00017F821686FF0400008602068143050E861
:101CE000001F41F0800140E80012002AF5D10020D9
:101CF00070BD012070BD00003F2000088120000859
:101D0000511F000870477047FEE700000D4808B5F6
:101D1000416941F0010141614069002200F0010088
:101D2000009005210E20FFF7B1F90E20FFF7A0F972
:101D3000002205210F20FFF7A9F9BDE808400F2078
:101D4000FFF796B90010024010B50B4A00210B486E
:101D500000F0C0FD0A4C084A0021206024320948E6
:101D600000F0B8FD044A606048320021064800F0E7
:101D7000B1FDA06010BD0000603F0008F51D000827
:101D800000000020291E0008311E0008094808B57F
:101D9000816941F020018161816901F02001009198
:101DA000816941F004018161806900F004000090C4
:101DB00008BD0000001002400C4810B50A4901603F
:101DC0004FF4E1314160002181600C22C160C0E923
:101DD00004128161C161FFF7A5FE002803D0BDE8B0
:101DE0001040FEF743BE10BD00380140E000002067
:101DF000FEE7FEE700F098FB094D0A4C002620683C
:101E0000401C2060FA2806DB95F8A900012802D1C1
:101E100000F058FB2660022000F006FDEFE700000E
:101E2000E04A0020D8000020142000F0FDFCFBE771
:101E300000F002FB0A2000F0F7FCF9E710B5502093
:101E400080F31188BFF34F8FBFF36F8F01F0E6FE71
:101E500018B104494FF080500860002080F31188C9
:101E600010BD000004ED00E030B58FB028216846B9
:101E7000FEF7DAF914210AA8FEF7D6F901210804C1
:101E8000CDE900100024029402250491CDE9075009
:101E90004FF4E01009906846FFF726FA08B172B6D1
:101EA000FEE70F20CDE90A054FF48060CDE90C4034
:101EB00002210AA80E94FFF71BF9002801D072B680
:101EC000FEE70FB030BD70470148FFF7FABB0000D6
:101ED000B0010020F0B50268164B174C174D4FF0BB
:101EE0008047984205D0B84203D0A04201D0A84212
:101EF00003D122F070064A683243984205D0B842B6
:101F000003D0A04201D0A84203D122F44074CA6891
:101F100022434C6922F08002224302608A68C26236
:101F20000A688262984201D1096901630121416115
:101F3000F0BD0000002C01400004004000080040FB
:101F400010B5406A0021C185C184FFF7B3FC10BD04
:101F500070B5446A2068406994F84110C0F3C0101D
:101F60000025212904D118B1E584204600F0B4F8F9
:101F70002068406994F84210C0F38010222904D1EF
:101F800018B1E585204600F080F8606C40F0100044
:101F900060642046FFF78EFC70BD10B50146406AB4
:101FA000096809684FF0000289062ED4C2850168CD
:101FB0000C3151E8003F23F4807341E80034002CD9
:101FC000F5D10168143151E8003F23F0010341E8E5
:101FD0000034002CF5D10168143151E8003F23F0A2
:101FE000400341E80034002CF5D1202180F8421054
:101FF000016B012909D101680C3151E8003F23F040
:10200000100341E80034002CF5D14263016B012933
:1020100002D0FFF739FE10BD818DFFF712FC10BD15
:1020200010B5406A01214163016B012902D0FFF71D
:102030002CFE10BD818D4908FFF703FC10BD10B5C3
:102040000146406A09680968890616D40021C184DE
:102050000168143151E8002F22F0800241E800238A
:10206000002BF5D101680C3151E8002F42F04002FD
:1020700041E80023002BF5D110BDFFF743FE10BD52
:1020800010B5406AFFF73FFE10BD01680C3151E802
:10209000002F22F4907241E80023002BF5D1016853
:1020A000143151E8002F22F0010241E80023002BF7
:1020B000F5D1016B012909D101680C3151E8002FDC
:1020C00022F0100241E80023002BF5D1202180F8F6
:1020D000421000210163704701680C3151E8002F64
:1020E00022F0C00241E80023002BF5D1202180F826
:1020F0004110704708B590F84210222901D0022003
:1021000008BD82684FF480539A4201D1016921B120
:10211000816A9A421BD04AB10AE00268816A526819
:10212000C2F308020A80816A891C08E0026972B160
:102130000268526802F07F020A70816A491C81625B
:10214000C18D491E0904090CC18503D01BE002683A
:102150005268F1E70168CA6822F02002CA6001688B
:10216000CA6822F48072CA6001684A6922F00102DA
:102170004A61202180F8421000214163026B012A4C
:1021800003D0FFF781FD002008BD016301680C3119
:1021900051E8002F22F0100241E80023002BF5D176
:1021A00001680A68D20602D50A6849680091818DE3
:1021B000FFF747FBE7E7000070B5044600680169D8
:1021C000E26821F44051114301612169A06808438C
:1021D000616908432168CA6841F20C639A4302436B
:1021E000CA6020684169A26921F4407111434161CC
:1021F0001E492068884202D1FFF740F801E0FFF74E
:102200002DF800EBC00101EB001260686421800032
:10221000B2FBF0F3B3FBF1F36FF018067343B2FBBC
:10222000F0F5B2FBF0F605EB8305322303EB051561
:10223000B5FBF1F5B6FBF1F605F0F00505EB06157B
:10224000B2FBF0F6B2FBF0F0B0FBF1F06FF0180269
:10225000504306EB800003EB0010B0FBF1F0216867
:1022600000F00F002844886070BD00000038014075
:1022700038B58162044682850020134660642222BC
:1022800084F84220E56B1B4AAA62E56B1A4AEA62AF
:10229000E56B1A4A2A63E26B50630A462168E06BD9
:1022A000091DFEF72DFD2068016840680090206937
:1022B00048B120680C3050E8001F41F4807140E8BC
:1022C0000012002AF5D12068143050E8001F41F0B8
:1022D000010140E80012002AF5D12068143050E8CE
:1022E000001F41F0400140E80012002AF5D1002013
:1022F00038BD00009B1F000821200008511F000866
:1023000010B50348FFF7D8FABDE8104000F050B808
:10231000E0000020FEE7000030B58BB0002514215E
:102320006846FDF781FF142105A8FDF77DFF1F4CCE
:10233000B4F8A60031E0611991F832200D2A2AD1B3
:1023400091F833100A2926D12DB30020694604E004
:10235000221892F832200A54401CA842F8DB0846A2
:1023600000F026FAD8B194F8A400C0B1012802D038
:10237000022814D107E0684600F005FAFDF75FFF78
:10238000C4F898000BE0684600F0FDF9FDF757FF30
:10239000C4F89C0003E06D1CEDB2A842CBD800202D
:1023A00004F8A40F012060700BB030BDE04A00209B
:1023B00038B5114800680168C943C9061AD40F4CE2
:1023C000002184F8A5100168406800900A48FFF7D2
:1023D00039FA0B4800684068C0F16400A4F8A60010
:1023E000FFF79AFF04F13201BDE838406422024849
:1023F000FFF73CBC38BD0000E0000020E04A0020B0
:10240000280100200A4808B5006801684168009169
:10241000C16841F01001C160642206490448FFF719
:1024200025FC04490120323981F8A90008BD0000CB
:10243000E0000020124B00202DE9F0411E4A0D2142
:102440000A20117750771E321C4C1177507794F880
:10245000A8300125DBB122460026022792F8A510FC
:1024600002F13200012B17D0022B0ED101290CD121
:102470006421FDF7D9FE04F8A47F0F4966701E227F
:102480001E310F48FFF702FC2571BDE8F08184F88A
:10249000A85084F8A550F8E70129F6D16421FDF78A
:1024A000C3FE04F8A45F1E22667003490448FFF7C8
:1024B000EDFB2771E9E700009C000020E04A0020C6
:1024C000E000002010B5114C11A213A1144823689C
:1024D00000F030F812480D21142281740A21C174D1
:1024E00001461048FFF7D2FBD4E9001048B1491E5D
:1024F00021600A2901D00A3102D120B10020606098
:1025000010BD491CF4E70120F9E700009400002009
:1025100070203020000000002573256400000000BA
:10252000CC4A0020E000002010B572B6FFF76AFF29
:1025300062B610BD0FB4084B10B504A902AA0398E7
:1025400000F040F8044602A9002000F017F92046E8
:1025500010BC5DF814FB00007D2700080907090E78
:10256000002804DB00F1E02080F80014704700F040
:102570000F0000F1E02080F8141D7047014800684A
:1025800070470000DC00002002E008C8121F08C1EC
:10259000002AFAD170477047002001E001C1121FE4
:1025A000002AFBD170470000014908607047000015
:1025B000DC00002030380A2801D2012070470020BA
:1025C000704700002DE9FF4F8BB09A460F46054635
:1025D000002606E025280BD052460D9990476D1C29
:1025E000761C28780028F5D10FB03046BDE8F08F72
:1025F0000024A0460122604900E0044315F8013F91
:10260000203B02FA03F00842F7D128782E2817D190
:1026100015F8010F44F004042A280ED06FF02F02A1
:102620002878A0F1300109290AD808EB880102EBCB
:10263000410100EB01086D1CF2E757F8048B6D1C9B
:10264000287869283ED006DC0028CDD063280BD03E
:10265000642804D136E0732810D075284BD0524638
:102660000D999047761C85E017F8040B8DF8000053
:1026700000208DF80100E946012003E057F8049B93
:102680004FF0FF3061074FF0000401D40AE0641CF2
:1026900044450DDA8442FADB19F804100029F6D11A
:1026A00006E0641C8442FCDB19F804100029F8D110
:1026B000264404E019F8010B52460D999047641E18
:1026C000F8D257E001CF4FF00A0B002802DA40425F
:1026D0002D2102E0210504D52B218DF824100121A4
:1026E00003E0E10705D02021F7E70DF1200908916B
:1026F0000CE00021F9E701CF4FF00A0BF9E759464A
:10270000FDF7B9FD01F1300209F8012D0028F6D1DD
:10271000ADEB090000F1200B600701D44FF0010878
:10272000D84502DDA8EB0B0000E000208046002425
:1027300006E009A85246005D0D999047641C761C7E
:1027400008988442F5DB04E0302052460D9990470A
:10275000761CB8F10001A8F10108F5DC05E019F8D4
:10276000010B52460D999047761CBBF10001ABF16D
:10277000010BF4DC6D1C34E7092801000A68531CC6
:102780000B601070704730B583B00446FFF7F6FE5B
:1027900005460020CDE90000024621466846FDF7C7
:1027A0009CFD2846FFF700FFDDE9000103B030BDC6
:1027B00010B504001CD0FDF711FD01682078085CFD
:1027C000C00701D0641CF9E720782B2801D02D2800
:1027D00000D1641C2078302803D114F8010F2E2872
:1027E00006D100200AE02E2A04D08A5C202A04D0D8
:1027F000002010BD401C0128FADC641C2278002A4D
:10280000F1D1012010BDFEF7B1FBFFF72DFBFFF763
:10281000BDFAFFF77BFAFFF7CFFA00F01FF8FFF7DA
:1028200093FA00F037F8FEE710B5EFF3058149B9E8
:10283000EFF3108131B908490968022905D1EFF396
:10284000118111B16FF0050403E0002408B100F01C
:10285000E3FD204610BD00006C000020EFF3058072
:1028600058B9EFF3108040B909490868022801D02F
:1028700030B109E0EFF3118030B16FF0050070471F
:1028800001200860002070474FF0FF3070470000C3
:102890006C00002010B5EFF3058060B9EFF31080F5
:1028A00048B90B490868022802D0012806D00BE07D
:1028B000EFF3118040B16FF0050010BD02200860F9
:1028C00000F012FE002010BD4FF0FF3010BD0000E0
:1028D0006C000020F0B585B04FEA01034FF0000412
:1028E000EFF305810394A1BBEFF3108189BB21496C
:1028F0000968022902D1EFF3118151BB48B3802648
:1029000018218DF8104004AD42B3176807B13D4659
:1029100097691FB139467F1E382F02D21779FF07FA
:1029200002D0002005B0F0BD576907B1BE08D2F84B
:1029300008C0BCF1000F0DD0D4685C2C18D312690C
:102940003AB137B18DE806103246294601F027F931
:1029500003900DE0D7685FB912694AB903AACDE9BF
:102960000012B2B2294601F0EDF8012800D003941C
:102970000398D7E76C0000202DE9F041134C0F4677
:10298000054666692068001D00F016FC681C07D12A
:1029900037B12168BDE8F0410D48091D00F05CBC6D
:1029A00020683544B5424560216805D2A068BDE87D
:1029B000F041091D00F038BC6068091D00F034FCCE
:1029C000206B854200D22563BDE8F0811C00002009
:1029D000E80600202DE9F041054600F049FC2D4CA9
:1029E0002069401C206120682B4F10B1E06930B392
:1029F0002BE025602069012827D1002606EB860000
:102A000007EB800000F002FC761C382EF6D323483A
:102A100000F0FCFB2148143000F0F8FB1F48283080
:102A200000F0F4FB1D483C3000F0F0FB1B48503038
:102A300000F0ECFB194860601430A06005E02068ED
:102A4000E96AC06A884200D82560E06A401CE062FA
:102A50006864E86AA169884200D9A06100EB80003F
:102A600007EB8000291D00F0F7FB00F021FCE06976
:102A700000280CD02068E96AC06A884207D2084959
:102A80004FF080500860BFF34F8FBFF36F8FBDE8EA
:102A9000F08100001C000020380200209806002071
:102AA00004ED00E038B500F0E3FB104CA068C8B9B5
:102AB0000F4800F0ABFB0E48143000F0A7FB0C48A9
:102AC0002060143060600A4B00202833009003F12E
:102AD000500210210A2000F0D9FDA06010B105A11C
:102AE00000F064FCBDE8384000F0E2BB5800002074
:102AF000FC060020546D72510000000030B4026CDE
:102B00000B46002A0BD0C1681144C1604468A14241
:102B100001D30168C16030BC1846FDF76CBB30BC06
:102B200070472DE9F041856B174604460026026C7C
:102B300082B1C7B1E068FDF75EFBE168206C091A5D
:102B4000E1602268914202D26168081AE060022FB7
:102B500016D017E02068A8B9606801F0C3F80646EF
:102B6000002060600EE0A068FDF745FB216CA068C6
:102B70000844A0606168884204D32068A06001E036
:102B800005B16D1E6D1CA5633046BDE8F08110B522
:102B9000044690F8590058B101280CD002280FD0F3
:102BA000502080F31188BFF34F8FBFF36F8FFEE784
:102BB000206B00F091FB2046BDE8104000F08CBB7C
:102BC00010BD000010484FF47051420706D0C01DE0
:102BD0000D4920F00700411AC1F570510B4A00233E
:102BE0000144C2E900030839103A21F007011160DD
:102BF0004B600B600B1AC0E9001393604FF000406C
:102C00005360D06070470000CC0E00208000002090
:102C1000144E154CA6F29C474FF08058DFF84C90AC
:102C200012E000BF00F024FBF068C568281D00F02A
:102C3000C3FA2069401E2061E068401EE06000F099
:102C400037FB2846FFF7A3FFE0680028EAD1386881
:102C50000128F9D9C9F80080BFF34F8FBFF36F8FF8
:102C6000F2E70000D40600201C00002004ED00E084
:102C700070B51D46049C51B1C4F80020C4E90F0191
:102C80000121204600F036FD84F84C5070BD2460D0
:102C9000F4E72DE9F0470E46DDE909841746824640
:102CA00091009946089DA522206BFDF7B6FA6FF0BA
:102CB0000301206B01EB8701084420F00707780728
:102CC00007D0502080F31188BFF34F8FBFF36F8F71
:102CD000FEE72218315C82F83410315C11B1401CDF
:102CE0001028F6D3002684F84360382D00D337250A
:102CF000E562C4E91356201D00F093FA04F11800B0
:102D000000F08FFA2461C5F138006462A061666545
:102D100084F858604A465146384600F03BFA206035
:102D2000B8F1000F01D0C8F80040BDE8F0870000FE
:102D300030B5114900E011460A688242FBD34B6866
:102D40005C18844203D140681844486008464368D0
:102D50001C18944209D1084C103C2468A24209D0A6
:102D600052681A4442600A6812680260814200D0C8
:102D7000086030BD0460F9E78000002070B50024D1
:102D800041600B4D0061914206D8D11A826991428F
:102D900006D2011D686807E09A4203D2994201D326
:102DA000012403E0011D286800F03EFA204670BDB2
:102DB0005800002010B5044600F05AFAA06B28B164
:102DC0005FF0000400F074FA204610BD0124F9E71A
:102DD00030B589B0304D55E00498002806DADDE9B9
:102DE0000601059A9047049800284BDB069C606911
:102DF00010B1201D00F0E0F902A800F0B9F8024679
:102E000004980A283ED2DFE800F00505053D263784
:102E100005053D260598A169034601442046FFF7B4
:102E2000ADFF00B3616A20468847E069012829D1D7
:102E3000002000900598A1690023421819462046F9
:102E400001F05AF878B9502080F31188BFF34F8F02
:102E5000BFF36F8FFEE70598A06128B18118134674
:102E60002046FFF78BFF0DE0502080F31188BFF361
:102E70004F8FBFF36F8FFEE794F82C0010B92046F8
:102E800000F02AFA002204A9A86800F085FD0028B5
:102E9000A2D109B030BD0000580000202DE9FC414E
:102EA0000F46054600F064FB01A800F061F80446F7
:102EB000019818B100F08EFFBDE8FC81224EAFB141
:102EC00070680068A8B30027291B3A46B06800F074
:102ED00081FA00F07FFF0028EED11C494FF08050AE
:102EE0000860BFF34F8FBFF36F8FE5E7A542EBD8C4
:102EF00000F070FF30682746C068C468201D00F0ED
:102F00005BF9E069012810D1A0692B4641193A46C6
:102F10002046FFF733FF40B10020034601460090F2
:102F20002A46204600F0E8FF20B1616A2046884723
:102F3000C2E707E0502080F31188BFF34F8FBFF343
:102F40006F8FFEE70127BFE75800002004ED00E087
:102F500006484168096829B14168C968C968496873
:102F6000016370474FF0FF31FAE700001C000020BA
:102F700070B5054600F04CFE064E044630698442AA
:102F800003D200F009F8012000E00020286020466C
:102F9000346170BD58000020F8B5194D1FE0C068BD
:102FA000C4680668201D00F007F9616A204688475A
:102FB000E069012813D1A0693044B04206D92461E8
:102FC0006060211D286800F02FF908E0002003460A
:102FD000014600903246204600F08EFF38B1286846
:102FE00001680029DBD16968C5E90010F8BD5020EF
:102FF00080F31188BFF34F8FBFF36F8FFEE70000A0
:103000005800002008484068401C4FF0500080F3F2
:10301000118804D0BFF34F8FBFF36F8FFEE7BFF36C
:103020004F8FBFF36F8FFEE788000020074C2068AA
:10303000016841B1C0680021D0F80000FFF72EFF01
:10304000FFF7C6FEF3E701210020F7E75800002054
:103050002DE9F041044600F00BF994F9455004F1D4
:10306000240609E0606A48B1304600F07BFE08B1F2
:1030700000F000FA6D1E6DB2002DF3DC4FF0FF364C
:1030800084F8456000F014F900F0F2F894F9445027
:1030900004F1100709E0206948B1384600F062FEEB
:1030A00008B100F0E7F96D1E6DB2002DF3DC84F875
:1030B0004460BDE8F04100F0FBB800002DE9F041AC
:1030C0000546002700F054FA314E306808B9FFF782
:1030D00079FDF06805424BD1C5B3083568070ED0BD
:1030E00005F00700C0F108000544680707D050202C
:1030F00080F31188BFF34F8FBFF36F8FFEE72DB3BF
:103100007068854234D82248103001460C6801E0CE
:1031100020460C466168A94202D221680029F7D1F5
:1031200031688C4224D007682168016060680837E4
:10313000411B10290FD96019420708D0502080F395
:103140001188BFF34F8FBFF36F8FFEE710E0416030
:103150006560FFF7EDFD61687068401A7060B268E5
:10316000904200D2B060F06801430020C4E9000141
:1031700000F030FE780707D0502080F31188BFF3AD
:103180004F8FBFF36F8FFEE73846BDE8F081000038
:103190007000002010B5031F4FF080741C601B1FCF
:1031A00021F001011960191F024B0B6014394038DE
:1031B0000A6010BD05300008D0E9013201699A604B
:1031C000D0E901235A604A68824201D182684A608C
:1031D000002202610868401E08600868704700000D
:1031E000034B036003F15C000860802010607047AF
:1031F00014080020044B036003F15C0008604FF4E6
:103200008070106070470000700A002000F1080113
:103210004FF0FF32C0E90112C1600161002101607D
:10322000704700210161704730B50B685A1C02D00D
:1032300000F1080202E0026904E0224654682568B1
:103240009D42FAD953684B6099608A605160086169
:103250000168491C016030BD42684A6093688B6018
:1032600093685960916008610168491C016070476A
:10327000502080F31188BFF34F8FBFF36F8F0A493F
:103280004868401C486001280CD10848006810F0CC
:10329000FF0F07D0502080F31188BFF34F8FBFF38B
:1032A0006F8FFEE7704700008800002004ED00E00B
:1032B0000849486828B1401E486001D180F3118850
:1032C0007047502080F31188BFF34F8FBFF36F8F8B
:1032D000FEE700008800002070B5002827D0144DBC
:1032E000A0F108046168E868014207D1502080F32A
:1032F0001188BFF34F8FBFF36F8FFEE722683AB19B
:10330000502080F31188BFF34F8FBFF36F8FFEE71C
:103310008143616000F02CF9606869680844686066
:103320002046FFF705FDBDE8704000F053BD70BDBD
:10333000700000204FF0E02000210161816105490B
:103340004FF47A720968B1FBF2F1491E416107211D
:10335000016170471800002010B5FCF719FF1149F2
:1033600010280ED300F1E02090F8F0030A78904284
:1033700007D2502080F31188BFF34F8FBFF36F8FB8
:10338000FEE709480068896800F4E060884207D9D0
:10339000502080F31188BFF34F8FBFF36F8FFEE78C
:1033A00010BD0000880000200CED00E010B5084BB7
:1033B000002200BF53F832401CB1521C082AF9D336
:1033C00010BD43F8321003EBC201486010BD00008D
:1033D000F801002070B515460E460446FFF748FF79
:1033E00094F944100020491C01D184F8440094F958
:1033F0004510491C01D184F84500FFF759FFA06B27
:1034000028B92A46314604F1240000F051F820463C
:10341000BDE87040FFF71CBE10B5020014D00F4885
:10342000806B38B1502080F31188BFF34F8FBFF30A
:103430006F8FFEE700F09CF800211046FFF79CFA22
:1034400000F0C8FC002807D105494FF08050086003
:10345000BFF34F8FBFF36F8F10BD00001C00002023
:1034600004ED00E002498A6A0260496941607047E0
:103470001C00002001490120486270471C00002008
:1034800010B50C4650B1094909681831FFF7CCFE58
:103490002046BDE810400121FFF76EBA502080F3AE
:1034A0001188BFF34F8FBFF36F8FFEE71C00002022
:1034B00070B514460D4668B10A4909681831FFF71E
:1034C000CBFE0CB14FF0FF3521462846BDE87040D9
:1034D000FFF752BA502080F31188BFF34F8FBFF32C
:1034E0006F8FFEE71C00002030B587B000240394E6
:1034F00005AA04A903A80494FFF772FEDDE90301FD
:103500000094CDE90110002315A11748059A00F099
:1035100046FB164D002868631FD000F0BDFC012853
:1035200009D0401C19D1502080F31188BFF34F8F70
:10353000BFF36F8FFEE7502080F31188BFF34F8FEA
:10354000BFF36F8F4FF0FF3028630120E8616C619B
:1035500007B0BDE8304000F045B807B030BD00000E
:1035600049444C4500000000112C00081C000020BC
:103570000248816B491C8163704700001C000020D9
:10358000164810B5816B11B10121416210BD0021B7
:1035900041628169124A01E0B9B1491E01EB810320
:1035A00052F82330002BF7D001EB810302EB8302AA
:1035B00002F1080453685B685360A34201D15B6861
:1035C0005360DA680260816110BD502080F3118879
:1035D000BFF34F8FBFF36F8FFEE700001C0000208A
:1035E000380200201CB5264908780190FF20087099
:1035F00008788DF800009DF800009DF8002000F08C
:10360000F000904207D0502080F31188BFF34F8F15
:10361000BFF36F8FFEE79DF800001A4B00F05000DB
:1036200018700720986005E09DF8002052008DF882
:103630000020401E9DF800201206F5D49860032853
:1036400007D0502080F31188BFF34F8FBFF36F8FE7
:10365000FEE74FF440709860019808700A480168CE
:1036600041F470010160016841F070410160FFF7B1
:1036700061FE00205860FCF755FD00201CBD0000D5
:1036800000E400E08800002020ED00E038B5049D53
:1036900018B153B1CAB181B120E0502080F3118834
:1036A000BFF34F8FBFF36F8FFEE7502080F3118879
:1036B000BFF34F8FBFF36F8FFEE7502080F3118869
:1036C000BFF34F8FBFF36F8FFEE739B1502080F308
:1036D0001188BFF34F8FBFF36F8FFEE750241C4656
:1036E000012384F846302B460094FFF7C1FA2046A8
:1036F00038BD000070B50D46040025D0FFF7B8FDB9
:10370000D4E90F20216802FB001161600021A16350
:103710002168A1600A46D4E90F01401E00FB012187
:10372000E16021464FF0FF3001F8440F487004F18A
:1037300010008DB1FFF76AFD04F12400FFF766FD6C
:10374000FFF7B6FD012070BD502080F31188BFF354
:103750004F8FBFF36F8FFEE721690029F0D000F093
:1037600001FB0028ECD004494FF080500860BFF303
:103770004F8FBFF36F8FE3E704ED00E02DE9FF47C4
:1037800082B01D468A464FF00008040003D0BAF10B
:10379000000F08D011E0502080F31188BFF34F8F45
:1037A000BFF36F8FFEE7206C38B1502080F3118893
:1037B000BFF34F8FBFF36F8FFEE7022D0AD1E06B8F
:1037C000012807D0502080F31188BFF34F8FBFF33B
:1037D0006F8FFEE700F00EFA3F4F4FF000094FF0F9
:1037E000805648B9049838B1502080F31188BFF34F
:1037F0004F8FBFF36F8FFEE7FFF73AFDA06BE16BD2
:10380000884207D3022D05D00498D0B1B8F1000F3B
:103810001AD01EE02A4651462046FFF782F9616A17
:1038200019B104F1240000F09DFA20B13E60BFF30D
:103830004F8FBFF36F8FFFF73BFD012006B0BDE850
:10384000F087FFF735FD22E06846FFF70BFE4FF0EB
:103850000108FFF72DFDFFF78BFEFFF709FD94F937
:103860004400401C01D184F8449094F94500401C68
:1038700001D184F84590FFF71BFD04A9684600F0CC
:1038800027F930B12046FFF7E3FB00F0A3FA002050
:10389000D4E7FFF7EDFCA06BE16B884213D1FFF793
:1038A00007FD04F110000499FFF7EAFD2046FFF739
:1038B000CFFB00F08FFA00289ED13E60BFF34F8F00
:1038C000BFF36F8F98E7FFF7F3FC2046FFF7C0FBCD
:1038D00000F080FA90E7000004ED00E02DE9F047E9
:1038E0001F4690468946040003D0B9F1000F08D066
:1038F00011E0502080F31188BFF34F8FBFF36F8F1B
:10390000FEE7206C38B1502080F31188BFF34F8F51
:10391000BFF36F8FFEE7022F0AD1E06B012807D0BB
:10392000502080F31188BFF34F8FBFF36F8FFEE7F6
:10393000FFF712FD5020EFF3118680F31188BFF3DB
:103940004F8FBFF36F8FA06BE16B884206D3022FBE
:1039500004D0002086F31188BDE8F08794F9455023
:103960003A4649462046FFF7DCF8681C04D06D1C37
:1039700084F845500120EDE7606A0028FAD004F190
:10398000240000F0EFF90028F4D0B8F1000FF1D0D6
:103990000121C8F80010EDE72DE9F747002683B0B4
:1039A0008A46040003D0BAF1000F08D011E050207D
:1039B00080F31188BFF34F8FBFF36F8FFEE7206C4A
:1039C00038B1502080F31188BFF34F8FBFF36F8F52
:1039D000FEE700F00FF9DFF8F4804FF000094FF038
:1039E000805748B9059838B1502080F31188BFF34B
:1039F0004F8FBFF36F8FFEE7FFF73AFCA56BC5B1A2
:103A000051462046FFF77AF86D1EA563206950B134
:103A100004F1100000F0A6F928B1C8F80070BFF357
:103A20004F8FBFF36F8FFFF743FC012006B0BDE857
:103A3000F087059808B11EB106E0FFF739FC27E0D2
:103A40006846FFF70FFD0126FFF732FCFFF790FDF8
:103A5000FFF70EFC94F94400401C01D184F8449017
:103A600094F94500401C01D184F84590FFF720FCF3
:103A700005A9684600F02CF8002820460AD0FFF778
:103A8000E7FA00F0A7F92046FFF794F90028B3D031
:103A90000020CBE7FFF78EF990B104F124000599DF
:103AA000FFF7EEFC2046FFF7D3FA00F093F9002869
:103AB000A2D1C8F80070BFF34F8FBFF36F8F9BE7A1
:103AC0002046FFF7C5FA00F085F995E704ED00E020
:103AD0002DE9F0410C46050011D0C4B1FFF7C8FB39
:103AE000174B5A696E682068911B471C17D02F68C6
:103AF0009B6A9F4219D0964217D8012410E05020AB
:103B000080F31188BFF34F8FBFF36F8FFEE7502014
:103B100080F31188BFF34F8FBFF36F8FFEE7002450
:103B2000FFF7C6FB2046BDE8F081884205D9401A60
:103B300020602846FFF796FCF1E700202060DCE7D4
:103B40001C0000202DE9FF5F8346DDE90E879946C2
:103B500016468A469000FFF7B1FA05001CD05C209B
:103B6000FFF7ACFA040014D00020256384F8590054
:103B7000CDE90240CDE900874B46324651465846D2
:103B8000FFF787F82046FEF725FF012004B0BDE8C7
:103B9000F09F2846FFF7A0FB4FF0FF30F6E7F0B5A7
:103BA00085B0DDE90B640A9DA6B1DCB15C27009706
:103BB0002663022684F85960002604AFCDE9024648
:103BC000CDE90057FFF765F82046FEF703FF04989C
:103BD00005B0F0BD502080F31188BFF34F8FBFF3C5
:103BE0006F8FFEE7502080F31188BFF34F8FBFF334
:103BF0006F8FFEE70548C16919B1806B18B10020CD
:103C00007047012070470220704700001C00002010
:103C100001484069704700001C0000202DE9F04178
:103C20002E4C0027A06B40B1206A401C2062606AC5
:103C300000B101273846BDE8F0816669761C6661EF
:103C400013D16068006838B1502080F31188BFF349
:103C50004F8FBFF36F8FFEE76068A1686160A0605F
:103C6000A06A401CA062FFF773F9206BDFF8708038
:103C7000864209D36068006880B16068C068C56822
:103C8000686886420DD220632068C06A00EB80011C
:103C900058F821000128CAD90127C8E74FF0FF30A2
:103CA000F1E7281DFFF788FAA86A18B105F1180096
:103CB000FFF782FAE86AA169884200D9A06100EBA7
:103CC000800108EB8100291DFFF7C6FAE86A216828
:103CD000C96A8842CED30127CCE700001C0000202F
:103CE0003802002070B504004FF0000133D01B4DA6
:103CF0002868844207D0502080F31188BFF34F8F8B
:103D0000BFF36F8FFEE7206D38B1401E2065E36C76
:103D1000E26A9A421FD040B11DE0502080F3118822
:103D2000BFF34F8FBFF36F8FFEE7201DFFF744FAFD
:103D3000E06CE062C0F13800A061E06AA9698842E5
:103D400000D9A861064900EB800001EB8000211D2D
:103D5000FFF782FA0121084670BD00001C00002018
:103D60003802002070B5C068C46854B104F118006E
:103D70000646FFF721FA144DA86B50B1314613489F
:103D800015E0502080F31188BFF34F8FBFF36F8F82
:103D9000FEE7201DFFF710FAE06AA969884200D902
:103DA000A8610B4900EB800001EB8000211DFFF7AB
:103DB00053FAE06A2968C96A884202D90120686218
:103DC00070BD002070BD00001C000020C006002057
:103DD000380200202DE9F0472C4D00242746A86B1F
:103DE00038B1FFF745FAA86B401EA863A86B40B135
:103DF00046E0502080F31188BFF34F8FBFF36F8FE1
:103E0000FEE72969224E0120D1B3A6F591698046CB
:103E10003068E0B1F068C46804F11800FFF7CCF92D
:103E2000201DFFF7C9F9E06AA969884200D9A86195
:103E300000EB800109EB8100211DFFF70DFAE06A1C
:103E40002968C96A8842E3D3C5F82480E0E70CB149
:103E5000FFF77EF82C6A4CB14FEA0806FFF7DEFE4A
:103E600000B16E62641EF9D100202862686A38B120
:103E70000849012738070860BFF34F8FBFF36F8FE2
:103E8000FFF716FA3846BDE8F08700001C00002056
:103E9000C006002004ED00E010B586B0FEF702FE7B
:103EA000114CA068B8B100200390049005AA04A9A1
:103EB00003A8FFF79FF9DDE9032102208DE8070041
:103EC00000230AA10B48059AFFF769FEE06010B1D4
:103ED00006B0012010BD502080F31188BFF34F8F32
:103EE000BFF36F8FFEE7000058000020546D722072
:103EF000537663002D3000082DE9FF411E4613461E
:103F000002000A9D4FF0000016D0144CA768002F45
:103F10000FD0CDE900130292062917DAFFF76AFEE7
:103F200002284FF000030FD000226946A068FFF777
:103F300025FC04B0BDE8F081502080F31188BFF368
:103F40004F8FBFF36F8FFEE72A46EEE7002332461E
:103F500069463846FFF7C2FCEBE700005800002036
:103F60007C4000080000000000000000000000008D
:103F7000000000000002000030000000000000000F
:103F80000000000094400008000000000000000055
:103F90000000000000000000000200000800000017
:103FA0000000000000000000884000080000000041
:103FB00000000000000000000000000000020000FF
:103FC00018000000000000000000000001020203D1
:103FD0000405060708090A0B0C0D0E0F101000004F
:103FE00000000000000001020304060708090000A9
:103FF0000000010203040040404040404040404077
:1040000041414141414040404040404040404040AB
:1040100040404040404040050202020202020202CB
:104020000202020202020220202020202020202062
:1040300020020202020202029090909090901010D2
:104040001010101010101010101010101010101070
:1040500010100202020202028888888888880808F4
:1040600008080808080808080808080808080808D0
:104070000808020202024000F73F00085461736B17
:1040800048696768000000005461736B4E6F726D81
:10409000616C00005461736B4C6F7700BC4000088A
:1040A00000000020E0000000882500089C41000876
:1040B000E0000020B04E000098250008000000003D
:1040C00000000000000000000100000010000000DF
:1040D000000000000024F4000000000000000000C8
:1040E00000000000000000000000000000000000D0
:1040F00000000000000000000000000000000000C0
:1041000000000000000000000000000000000000AF
:10411000000000000000000000000000000000009F
:10412000000000000000000000000000000000008F
:10413000000000000000000000000000000000007F
:104140000000000000000000AAAAAAAA00000000C7
:104150000000000000000000722061786973302EBA
:10416000656E636F6465722E706F735F65737469DB
:104170006D6174650000722061786973302E656E20
:10418000636F6465722E76656C5F657374696D61CB
:0C4190007465000000000000000000004A
:04000005080000ED02
:00000001FF
